:100000000C942A000C9455020C943C000C943C0077
:100010000C943C000C943C000C943C000C943C0070
:100020000C943C000C943C000C943C000C94640236
:100030000C943C000C943C000C943C000C943C0050
:100040000C943C000C943C000C943C000C943C0040
:100050000C943C0011241FBECFE5D8E0DEBFCDBF1D
:1000600020E0A0E6B0E001C01D92A536B207E1F79E
:100070000E94A4020C94B0040C94000060E081E49F
:100080000E94950261E081E40E94950262E081E4B1
:100090000E94950260E082E40E94950261E082E4A1
:1000A0000E94950262E082E40E9495022CE030E01A
:1000B00040E054E060E080E00E94870460E080E07F
:1000C0000E94D0030895CF93F9C061E081E40E94BB
:1000D0009D0260E081E40E94990262E082E40E9455
:1000E000990261E082E40E949D0260E082E40E9445
:1000F0009D0262E081E40E949D0281E080936200A3
:1001000010926100109260004CE050E060E074E0FA
:1001100080E00E949F0404C080916400813021F03F
:10012000809163008431C0F380E00E9490041092BB
:10013000630080916400813009F4C5C060E081E40F
:100140000E949D0262E082E40E949D0260E082E4DF
:100150000E949D0262E081E40E949D021092620072
:1001600081E080936100109260004CE050E060E01C
:1001700074E080E00E949F04C0E018C061E081E468
:100180000E94A10261E082E40E94A10204C0809169
:100190006400813021F0809163008430C0F31092BC
:1001A000630080916400813019F0CF5FC53030F377
:1001B00080E00E949004109263008091640081307E
:1001C00009F481C061E081E40E949D0262E081E463
:1001D0000E94990260E082E40E94990261E082E458
:1001E0000E949D0262E082E40E949D0260E081E440
:1001F0000E949D02109262001092610081E0809343
:1002000060004CE050E060E074E080E00E949F04F9
:1002100004C080916400813021F0809163008431BA
:10022000C0F380E00E94900410926300809164000B
:10023000813009F448C060E081E40E949D0262E0E0
:1002400082E40E949D0260E082E40E949D0262E0DE
:1002500081E40E949D021092620081E0809361001F
:10026000109260004CE050E060E074E080E00E949A
:100270009F04C0E018C061E081E40E94A10261E037
:1002800082E40E94A10204C080916400813021F0C8
:10029000809163008430C0F3109263008091640009
:1002A000813019F0CF5FC53030F380E00E949004B8
:1002B0001092630080916400813029F08091640085
:1002C000882309F402CF80916400813009F0EBC0EB
:1002D00080916000882309F45AC061E081E40E94A3
:1002E0009D0262E081E40E94990260E082E40E9443
:1002F000990261E082E40E949D0262E082E40E9431
:100300009D0260E081E40E949D024CE050E060E0CC
:1003100074E080E00E949F04809163008431E0F3E8
:1003200080E00E9490041092630060E081E40E94EB
:100330009D0262E082E40E949D0260E082E40E94ED
:10034000990262E081E40E949D024CE050E060E08E
:1003500074E080E00E949F04C0E00FC061E081E48F
:100360000E94A10261E082E40E94A10280916300E8
:100370008430E0F310926300CF5FC53078F380E003
:100380000E94900410926300109264008CC061E09F
:1003900081E40E949D0262E082E40E94990261E091
:1003A00082E40E949D0260E082E40E949D0262E07D
:1003B00081E40E949D024CE050E060E074E080E047
:1003C0000E949F04C0E00FC061E081E40E94A1028E
:1003D00061E082E40E94A102809163008430E0F336
:1003E00010926300CF5FC53078F380E00E949004E4
:1003F0001092630061E081E40E949D0260E082E46B
:100400000E94990261E082E40E949D0262E082E41F
:100410000E949D0262E081E40E94990260E081E412
:100420000E949D024CE050E060E074E080E00E9499
:100430009F04809163008431E0F380E00E94900487
:100440001092630060E081E40E949D0262E082E419
:100450000E949D0260E082E40E94990262E081E4D1
:100460000E949D024CE050E060E074E080E00E9459
:100470009F04C0E00FC061E081E40E94A10261E03E
:1004800082E40E94A102809163008430E0F3109224
:100490006300CF5FC53078F380E00E949004109233
:1004A000630010926400CF9108951F920F920FB6CF
:1004B0000F9211248F9381E0809364008F910F90AD
:1004C0000FBE0F901F9018951F920F920FB60F92AC
:1004D00011242F933F934F935F936F937F938F9349
:1004E0009F93AF93BF93EF93FF93809163008F5FD0
:1004F0008093630080E00E9490044CE050E060E054
:1005000074E080E00E949F04FF91EF91BF91AF9152
:100510009F918F917F916F915F914F913F912F911B
:100520000F900FBE0F901F90189541E00E94A902F6
:10053000089541E00E942103089540E00E942103B4
:1005400008950E94990308950E943E000E9463004E
:10055000FDCF823429F118F4813439F008958334C1
:10056000D1F1843409F452C00895413059F42AB3CA
:1005700081E090E002C0880F991F6A95E2F7822B14
:100580008ABB089541115CC02AB381E090E002C0AB
:10059000880F991F6A95E2F7809582238ABB089598
:1005A000413059F427B381E090E002C0880F991FD1
:1005B0006A95E2F7822B87BB0895411141C027B3AA
:1005C00081E090E002C0880F991F6A95E2F780955C
:1005D000822387BB0895413059F424B381E090E031
:1005E00002C0880F991F6A95E2F7822B84BB089599
:1005F000411126C024B381E090E002C0880F991F0A
:100600006A95E2F78095822384BB0895413059F4BE
:1006100021B381E090E002C0880F991F6A95E2F74C
:10062000822B81BB089541110BC021B381E090E082
:1006300002C0880F991F6A95E2F78095822381BBDB
:100640000895823429F118F4813439F008958334FF
:10065000D1F1843409F452C00895413059F42BB3D8
:1006600081E090E002C0880F991F6A95E2F7822B23
:100670008BBB089541115CC02BB381E090E002C0B8
:10068000880F991F6A95E2F7809582238BBB0895A6
:10069000413059F428B381E090E002C0880F991FDF
:1006A0006A95E2F7822B88BB0895411141C028B3B7
:1006B00081E090E002C0880F991F6A95E2F780956B
:1006C000822388BB0895413059F425B381E090E03E
:1006D00002C0880F991F6A95E2F7822B85BB0895A7
:1006E000411126C025B381E090E002C0880F991F18
:1006F0006A95E2F78095822385BB0895413059F4CD
:1007000022B381E090E002C0880F991F6A95E2F75A
:10071000822B82BB089541110BC022B381E090E08F
:1007200002C0880F991F6A95E2F78095822382BBE9
:1007300008958234A1F018F4813431F0089583349F
:10074000C9F0843411F108952BB381E090E002C028
:10075000880F991F6A95E2F782278BBB089528B30B
:1007600081E090E002C0880F991F6A95E2F7822726
:1007700088BB089525B381E090E002C0880F991FDF
:100780006A95E2F7822785BB089522B381E090E065
:1007900002C0880F991F6A95E2F7822782BB0895ED
:1007A0009FB790689FBF811114C0611107C085B7C2
:1007B000816085BF85B7826085BF08C0613031F434
:1007C00085B78E7F85BF85B7826085BF8BB7806414
:1007D0008BBF089581114EC06034710521F138F44A
:1007E0006115710561F06830710599F03AC06115C5
:1007F00081E0780711F16115744049F132C083B787
:10080000816083BF83B78D7F83BF83B78B7F83BFB7
:10081000089583B78E7F83BF83B7826083BF83B71A
:100820008B7F83BF089583B7816083BF83B7826066
:1008300083BF83B78B7F83BF089583B78E7F83BFCA
:1008400083B78D7F83BF83B7846083BF089583B7E9
:10085000816083BF83B78D7F83BF83B7846083BF8D
:10086000089583B78E7F83BF83B78D7F83BF83B7A0
:100870008B7F83BF0895811104C062BF89B78160F7
:1008800089BF0895CF93DF93EA018130A1F028F06A
:100890008230F9F0833059F137C083B78F7B83BF43
:1008A00083B7877F83BF80E00E94EA03BE0180E0B8
:1008B0000E943B0429C083B7806483BF83B7877FCE
:1008C00083BF80E00E94EA03BE0180E00E943B04F7
:1008D0001BC083B78F7B83BF83B7886083BF80E0F3
:1008E0000E94EA03BE0180E00E943B040DC083B772
:1008F000806483BF83B7886083BF80E00E94EA037F
:10090000BE0180E00E943B04DF91CF9108958111E8
:1009100006C0FA01862FA901BF010E944204089572
:1009200081110CC083B78E7F83BF83B78D7F83BF58
:1009300083B78B7F83BF88B7816088BF08950F938B
:100940001F93CF93811108C08A01C82F0E94EA0328
:10095000B8018C2F0E943B04CF911F910F910895F5
:04096000F894FFCF39
:00000001FF
